:1000000012C021C020C01FC03DC01DC01CC01BC0ED
:100010001AC019C018C017C016C015C014C013C02C
:1000200012C011C010C011241FBECFE5D4E0DEBF46
:10003000CDBF20E0A0E6B0E001C01D92A236B2071D
:10004000E1F74BD04DC0DCCF85B5806285BD85B56D
:100050008F7E85BD85B5886485BDBB9A14BC8FEF46
:1000600083BD109261001092600089B7806489BFDF
:1000700085B58B7F85BD85B5826085BD85B58E7F55
:1000800085BD08951F920F920FB60F9211248F9382
:100090009F938091600090916100892B59F083B506
:1000A0008B5F83BD83B58F3F89F4109261001092FE
:1000B00060000CC083B5855083BD83B5811106C037
:1000C00081E090E090936100809360009F918F9118
:1000D0000F900FBE0F901F901895B6DF7894FFCF4A
:0400E000F894FFCFC2
:00000001FF
