:1000000012C024C023C022C03CC020C01FC01EC0DC
:100010001DC01CC01BC01AC019C018C017C016C014
:1000200015C014C013C011241FBECFE5D4E0DEBF3D
:10003000CDBF10E0A0E6B0E0E2EDF0E002C0059038
:100040000D92A236B107D9F73FD041C0D9CF85B5BF
:10005000806285BD85B58F7E85BD85B5886485BD8B
:10006000BB9A14BC8CE383BD89B7806489BF85B516
:100070008B7F85BD85B5826085BD85B58E7F85BD4D
:1000800008951F920F920FB60F9211248F939F9392
:100090008091600090916100019739F48EE183BDF9
:1000A000109261001092600008C08CE383BD81E073
:1000B00090E090936100809360009F918F910F90EA
:1000C0000FBE0F901F901895C2DF7894FFCFF89461
:0200D000FFCF60
:0200D20001002B
:00000001FF
