:100000000C9434000C9446000C9446000C9446006A
:100010000C9446000C9446000C9446000C94460048
:100020000C9446000C9446000C9446000C94660117
:100030000C9483010C94F6000C9446000C9446003A
:100040000C9446000C9446000C9446000C94460018
:100050000C9446000C9446000C9446000C94460008
:100060000C9446000C94460011241FBECFEFD8E03C
:10007000DEBFCDBF21E0A0E0B1E001C01D92A630FF
:10008000B207E1F70E9448000C94A0010C94000014
:10009000CF93DF93CDB7DEB70E9450007894FFCFA7
:1000A000CF93DF93CDB7DEB780E890E020E830E073
:1000B000F90120812F77FC01208380E890E020E87F
:1000C00030E0F90120812F7BFC01208380E890E063
:1000D00020E830E0F90120812062FC01208380E8E3
:1000E00090E020E830E0F90120812F7EFC012083A0
:1000F00081E890E021E830E0F90120812061FC01F5
:10010000208381E890E021E830E0F9012081277F19
:10011000FC01208380E890E020E830E0F9012081B4
:100120002D7FFC01208380E890E020E830E0F90199
:1001300020812160FC01208384E290E024E230E011
:10014000F90120812460FC01208384E890E0FC0117
:100150001182108288E890E020E034E0FC013183D5
:1001600020838AE890E020E833E0FC01318320839B
:1001700010920101109200018FE690E02FE630E02E
:10018000F90120812160FC0120838FE690E02FE6B9
:1001900030E0F90120812260FC0120838FE690E0AD
:1001A0002FE630E0F90120812460FC01208381E802
:1001B00090E021E830E0F90120812B7FFC012083D1
:1001C00081E890E021E830E0F90120812260FC0123
:1001D000208381E890E021E830E0F90120812E7F42
:1001E000FC0120830000DF91CF9108951F920F92B0
:1001F00000905F000F9211242F933F938F939F9352
:10020000EF93FF93CF93DF93CDB7DEB780910001DB
:1002100090910101892B29F188E890E028E830E0ED
:10022000F9012081318120583F4FFC013183208327
:100230008AE890E02AE830E0F901208131812058F5
:100240003F4FFC013183208388E890E0FC018081EE
:1002500091818115944059F510920101109200018D
:1002600026C088E890E028E830E0F901208131815B
:1002700020583109FC01318320838AE890E02AE884
:1002800030E0F9012081318120583109FC013183AE
:10029000208388E890E0FC0180819181803891057D
:1002A00031F481E090E0909301018093000100001F
:1002B000DF91CF91FF91EF919F918F913F912F917E
:1002C0000F9000925F000F901F9018951F920F9251
:1002D00000905F000F9211248F939F93CF93DF9331
:1002E000CDB7DEB781E090E09093030180930201E7
:1002F0000000DF91CF919F918F910F9000925F004E
:100300000F901F9018951F920F9200905F000F9210
:1003100011248F939F93CF93DF93CDB7DEB781E006
:1003200090E090930501809304010000DF91CF914C
:100330009F918F910F9000925F000F901F901895E2
:04034000F894FFCF5F
:00000001FF
