:1000000012C021C020C01FC08CC01DC01CC01BC09E
:100010001AC019C018C017C016C015C014C013C02C
:1000200012C011C010C011241FBECFE5D4E0DEBF46
:10003000CDBF20E0A0E6B0E001C01D92A236B2071D
:10004000E1F702D0BCC0DCCFCF93DF93CDB7DEB7F2
:1000500002D07894FFCFCF93DF93CDB7DEB785E49E
:1000600090E025E430E0F90120812062FC0120834A
:1000700085E490E025E430E0F90120812F7EFC0149
:10008000208385E490E025E430E0F90120812064BC
:10009000FC01208385E490E025E430E0F901208133
:1000A000277FFC01208387E390E027E330E0F9011C
:1000B00020812860FC01208384E490E0FC01108210
:1000C00083E490E02FEFFC012083109261001092F6
:1000D000600089E590E029E530E0F90120812064A5
:1000E000FC01208385E490E025E430E0F9012081E3
:1000F0002B7FFC01208385E490E025E430E0F901CA
:1001000020812260FC01208385E490E025E430E03A
:10011000F90120812E7FFC0120830000DF91CF9127
:1001200008951F920F9200905F000F9211242F9359
:100130003F938F939F93EF93FF93CF93DF93CDB72D
:10014000DEB78091600090916100892BA1F083E47B
:1001500090E023E430E0F90120812B5FFC01208353
:1001600083E490E0FC0180818F3FD1F41092610024
:100170001092600015C083E490E023E430E0F901C0
:1001800020812550FC01208383E490E0FC018081E4
:10019000882331F481E090E09093610080936000C7
:1001A0000000DF91CF91FF91EF919F918F913F914F
:1001B0002F910F9000925F000F901F901895F89468
:0201C000FFCF6F
:00000001FF
