:1000000012C021C020C041C01EC01DC01CC01BC0EA
:100010001AC019C018C017C016C015C014C013C02C
:1000200012C011C010C011241FBECFE5D4E0DEBF46
:10003000CDBF20E0A0E6B0E001C01D92A236B2071D
:10004000E1F743D045C0DCCF85B5886085BD85B577
:100050008F7B85BDBB9A85B58F7D85BD85B580615C
:1000600085BD109261001092600014BC8FEA83BDC0
:1000700089B7806889BF85B58B7F85BD85B582606E
:1000800085BD85B58E7F85BD08951F920F920FB6F1
:100090000F9211248F939F93809160009091610043
:1000A000039754F4809160009091610001969093C1
:1000B00061008093600002C083E483BD9F918F91B3
:1000C0000F900FBE0F901F901895BEDF7894FFCF52
:0400D000F894FFCFD2
:00000001FF
