:100000000C9440020C945D020C945D020C945D0211
:100010000C945D020C945D020C945D020C946503DB
:100020000C948A030C945D020C945D020C945D02A6
:100030000C945D020C945D020C945D020C945D02C4
:100040000C945D020C945D020C945D020C945D02B4
:100050000C945D020C945D020C945D020C945D02A4
:100060000C945D020C945D023D064706CF05DA054F
:10007000E505F005FB05060611061C0627063206F7
:100080000000000000000000000000000000000070
:100090000000000000000000000000000000000060
:1000A0000000000000000000000000000000000050
:1000B0000000000000000000000000000000000040
:1000C0000000000000000000000000000000000030
:1000D0000000000000000000000000000000000020
:1000E000F0FCE00000000080E0FCF00000000000F8
:1000F0000000000000000000000000000000000000
:1001000000000000000000000000000000000000EF
:1001100000000000000000000000000000000000DF
:1001200000000000000000000000000000000000CF
:1001300000000000000000000000000000000000BF
:10014000000000000000000000000080C0E0F0F0AF
:10015000F8F8F8FCFCFCFCFCFCFCFCFEFEFEFEFFE0
:10016000FFFFFFFEFEFEFEFFFFFFFFFCF8F0C000FA
:10017000000000000000000000000000000000007F
:10018000000000000000000000000000000000006F
:10019000000000000000000000000000000000005F
:1001A000000000000000000000000000000000004F
:1001B000000000000000000000000000000000003F
:1001C00000000000000000008000003F7F7FFFFF74
:1001D000FFFFFFFFFFFFFFFFFFFFFFF9F1E1E1C1BD
:1001E000C1C1C1C7CFEFE7F1F9FFFFFFFFFF7F0FED
:1001F00000000000000000000000000000000000FF
:1002000000000000000000000000000000000000EE
:1002100000000000000000000000000000000000DE
:1002200000000000000000000000000000000000CE
:10023000183E7EFEFCF8F0E0C080000000000000E8
:1002400000008480848E9DBF3D7C76F3E0E0E0E09A
:100250008101010111191D1D1F7F3F1F1FFF7F3FDE
:100260003F3FFFFFFFFFFFFFFFFF1F0703010000EE
:10027000000000000000000000000000000000007E
:10028000000000000000000000000000000000006E
:10029000000000000000000000000000000000005E
:1002A000000000000000000000000000000000004E
:1002B000000000000103070F1F3FFFFEFCFCFEFED5
:1002C000FFFFEFCFCF8FBFFFFFFFFCF0C0C1C7DF45
:1002D000FFFEFCF8F0F0E0E0C0C0C0C0C0E0E0F01D
:1002E000F8FEFFFFFFFFFFFFFFFFFEFCE000000046
:1002F00000000000000000000000000000000000FE
:1003000000000000000000000000000000000000ED
:1003100000000000000000000000000000000000DD
:1003200000000000000000000000000000000000CD
:100330000000000000000000C0FEFFFFFF070303F5
:100340000307070FFFFFFFFFFFFFFFFFFFFFFFFF99
:10035000FFFFFFFFFFFFFFFFFFFFFFFFFFFFFFFFAD
:10036000FFFFFFFFFF7F3F1FFFFFFFFFFF000000BA
:10037000000000000000000000000000000000007D
:10038000000000000000000000000000000000006D
:10039000000000000000000000000000000000005D
:1003A00000000000000000000000003C3C3C3C3C21
:1003B0003C3C3C3E3E3E3E3E3F3F3F3F1F0000C078
:1003C000E0F8FC7C3F1F0F0F1F3F3F3F7F7F7F7F89
:1003D000FFFFFFFFFFFFFFFFFFFFFFFFFFFFFFFF2D
:1003E000FFF773797878787C7F7F7F3F0F0000007C
:1003F00000000000000000000000000000000000FD
:1004000000000000000000000000000000000000EC
:1004100000000000000000000000000000000000DC
:1004200000000000000000000000000000000000CC
:1004300000000000000000000000000000001CFFA1
:10044000FFFF0100000000000000000000000000AD
:10045000000000000003030D070703010101000075
:10046000000000000000000000000000000000008C
:10047000000000000000000000000000000000007C
:1004800011241FBECFEFD8E0DEBFCDBF12E0A0E049
:10049000B1E0E0ECF6E102C005900D92AE35B10797
:1004A000D9F722E0AEE5B2E001C01D92A636B20750
:1004B000E1F70E945F020C945E0B0C940000CF9356
:1004C000DF93CDB7DEB7A0970FB6F894DEBF0FBEAF
:1004D000CDBF1AB8539A549A5098519852985B9A33
:1004E0005C9887EB9BE00197F1F700C000005B98F8
:1004F000E7EBFBE03197F1F700C000005B9A87EB78
:100500009BE00197F1F700C000005C9A9FE7E9EAE1
:10051000F3E09150E040F040E1F700C0000080E0DF
:1005200091E00E947605E0EBF0E0808182608083BC
:1005300080818E7F8083E1EBF0E08081877F808304
:100540001092B2008CE78093B300A0E7B0E08C91EA
:1005500082608C9380818360808380818B7F8083A5
:1005600078946894222425F8809062029090630227
:10057000A0906402B0906502C12CD12C4CC080E0E8
:1005800091E00E94AF03632D80E091E00E9424047B
:1005900060E080E091E00E94590460E480E091E036
:1005A0000E94E4038701045811090F2EFEEF4F2E1D
:1005B00055245A94652C752CF02D20E842165104D0
:1005C0006104710430F06FEF80E091E00E94040458
:1005D00006C0F801649180E091E00E940404FFEFFE
:1005E0004F1A5F0A6F0A7F0A0F5F1F4F0E151F0514
:1005F00021F780E091E00E94B703339420E8E20EF7
:10060000F11C88E03812BBCF9FEFC91AD90AE5E088
:10061000CE16D10441F00F2EF2E0EF2EF1E0FF2EC6
:10062000F02D312CACCF8091620290916302A091A9
:100630006402B09165029C01AD01281939094A098B
:100640005B0960EA76E881E090E00E943E089F93B3
:100650008F937F936F935F934F933F932F9385E592
:1006600092E09F938F931F922F9281E090E08C0FE6
:100670009D1F9F938F930E94660880E091E00E94E7
:10068000AF0367E080E091E00E94240462E080E034
:1006900091E00E94590480E091E00E94B703BE01FE
:1006A0006F5F7F4F80E091E00E9495059FEFEEE93C
:1006B000F4E29150E040F040E1F700C000000FB6D6
:1006C000F894DEBF0FBECDBF4FCF1F920F920FB673
:1006D0000F9211248F939F93AF93BF9380916202E7
:1006E00090916302A0916402B09165020196A11DF0
:1006F000B11D8093620290936302A0936402B09351
:100700006502BF91AF919F918F910F900FBE0F9097
:100710001F9018951F920F920FB60F9211248F936E
:100720009F93AF93BF9380915E0290915F02A091DF
:100730006002B09161020196A11DB11D80935E021D
:1007400090935F02A0936002B0936102BF91AF915A
:100750009F918F910F900FBE0F901F901895815F02
:100760009E4FFC0110821182128213820895CF9253
:10077000DF92EF92FF92CF93DF93EC01FC01E15FF8
:10078000FE4FC080D180E280F38081E0C816D80699
:10079000E104F10420F0C12CD12C7601D394CE01D8
:1007A0000E94B107BE01615F7F4FA7019601CE0194
:1007B0000E94FC06CE010E94FF07DF91CF91FF90BF
:1007C000EF90DF90CF900895262FFC01E15FFE4F60
:1007D00040815181628173814F3F510561057105EF
:1007E00009F078F4FC01E40FF51F2787FC01E15FB5
:1007F000FE4F4F5F5F4F6F4F7F4F40835183628348
:10080000738380E090E00895262FFC01E15FFE4FA6
:1008100040815181628173814F3F510561057105AE
:1008200009F078F4FC01E40FF51F2787FC01E15F74
:10083000FE4F4F5F5F4F6F4F7F4F40835183628307
:10084000738380E090E00895CF92DF92EF92FF9261
:10085000262FFC01E15FFE4F40815181628173814F
:100860004F3F510561057105E8F4FC01E40FF51FE8
:1008700030E837876A017B013FEFC31AD30AE30AE6
:10088000F30AFC01EC0DFD1D2770206B2787FC018E
:10089000E15FFE4F4E5F5F4F6F4F7F4F408351834D
:1008A0006283738380E090E0FF90EF90DF90CF90C1
:1008B0000895CF92DF92EF92FF92262FFC01E15F25
:1008C000FE4F40815181628173814D3F5105610529
:1008D0007105A0F5FC01E40FF51F30E837876A01C8
:1008E0007B01EFEFCE1ADE0AEE0AFE0ADC01AC0D48
:1008F000BD1DE0E11F96EC936A017B01E2E0CE0EA4
:10090000D11CE11CF11CFC01EC0DFD1D37876A01B7
:100910007B0133E0C30ED11CE11CF11CFC01EC0D8A
:10092000FD1D2F702787FC01E15FFE4F4C5F5F4F7D
:100930006F4F7F4F408351836283738380E090E0E9
:10094000FF90EF90DF90CF9008950F931F93FC01DD
:10095000E15FFE4F40815181628173814F3F5105BC
:1009600061057105D8F4FC01E40FF51F20E8278725
:100970008A019B010F5F1F4F2F4F3F4FFC01E00F7C
:10098000F11F2FEA2787FC01E15FFE4F4E5F5F4FAB
:100990006F4F7F4F408351836283738380E090E089
:1009A0001F910F9108950F931F93FC01E15FFE4F7C
:1009B00040815181628173814F3F5105610571050D
:1009C000D8F4FC01E40FF51F20E827878A019B017A
:1009D0000F5F1F4F2F4F3F4FFC01E00FF11F2EEA1B
:1009E0002787FC01E15FFE4F4E5F5F4F6F4F7F4FE8
:1009F000408351836283738380E090E01F910F9165
:100A000008950F931F93CF93DF93A62FFC01E15F0F
:100A1000FE4F40815181628173814D3F51056105D7
:100A2000710578F5EC01C40FD51FE0E8EF878A0166
:100A30009B010F5F1F4F2F4F3F4FEC01C00FD11F86
:100A400021E82F878A019B010E5F1F4F2F4F3F4FD9
:100A5000EC01C00FD11FEF878A019B010D5F1F4F73
:100A60002F4F3F4FFC01E00FF11FA787FC01E15F13
:100A7000FE4F4C5F5F4F6F4F7F4F408351836283C8
:100A8000738380E090E0DF91CF911F910F910895E3
:100A90000F931F93FC01E15FFE4F40815181628102
:100AA00073814F3F510561057105D8F4FC01E40FD6
:100AB000F51F20E827878A019B010F5F1F4F2F4FEB
:100AC0003F4FFC01E00FF11F26EA2787FC01E15FA1
:100AD000FE4F4E5F5F4F6F4F7F4F40835183628366
:100AE000738380E090E01F910F910895CF93DF937F
:100AF000EC010E94C006FE01E15FFE4F10821182F0
:100B000012821382CE010E94D30467E5CE010E94B7
:100B10000105CE010E944805CE010E94A504CE0128
:100B20000E94B703DF91CF9108956F927F928F92C9
:100B30009F92AF92BF92CF92DF92EF92FF920F936C
:100B40001F93CF93DF93682E792EEB01182F092F77
:100B5000FB0101900020E9F731974F01861A970AAF
:100B60000E94B10760E4862D972D0E94F706A12C04
:100B7000B12C81149104A104B10409F493C0C12CD7
:100B8000D12C7601E9918E2F90E0FC01BE97EC30DC
:100B9000F10508F07CC0EC5CFF4F0C94600826E087
:100BA00030E040E050E06FE472E0812F902F0E942F
:100BB000FC066DC026E030E040E050E069E472E001
:100BC000812F902F0E94FC0662C026E030E040E0BA
:100BD00050E063E472E0812F902F0E94FC0657C022
:100BE00026E030E040E050E06DE372E0812F902F8E
:100BF0000E94FC064CC026E030E040E050E067E395
:100C000072E0812F902F0E94FC0641C026E030E068
:100C100040E050E061E372E0812F902F0E94FC06DB
:100C200036C026E030E040E050E06BE272E0812F19
:100C3000902F0E94FC062BC026E030E040E050E000
:100C400065E272E0812F902F0E94FC0620C026E012
:100C500030E040E050E06FE172E0812F902F0E9481
:100C6000FC0615C026E030E040E050E069E172E0AB
:100C7000812F902F0E94FC060AC026E030E040E061
:100C800050E063E172E0812F902F0E94FC068FEF0D
:100C9000C81AD80AE80AF80AC814D904EA04FB04F6
:100CA00008F470CF862D972D0E94FF0780E090E01A
:100CB000DF91CF911F910F91FF90EF90DF90CF9038
:100CC000BF90AF909F908F907F906F900895FC01A0
:100CD000A185B2858C9121E030E0A901058402C094
:100CE000440F551F0A94E2F7068402C0220F331FF7
:100CF0000A94E2F7242B2095822398E041E050E00B
:100D00009A01058402C0220F331F0A94E2F766237A
:100D10001CF02095822301C0822BA185B2858C9383
:100D2000A185B2857C919A01068402C0220F331FEF
:100D30000A94E2F7272B2C93A185B2858C93660F3A
:100D40009150F1F6A185B28521E030E0A90105843A
:100D500002C0440F551F0A94E2F7409548234C9374
:100D6000A185B2859C91068402C0220F331F0A948C
:100D7000E2F7292B2C930184F285E02D80830895DE
:100D8000FC01A385B4859C9121E030E0A901058494
:100D900002C0440F551F0A94E2F7842F80958923DF
:100DA0008C93A385B4859C91A901068402C0440F4D
:100DB000551F0A94E2F7842F809589238C93A1858F
:100DC000B2854C91C901058402C0880F991F0A940D
:100DD000E2F7842B8C93A185B2858C91068402C0A6
:100DE000220F331F0A94E2F7282B2C9308950E94B8
:100DF000670680E090E00895CF92DF92EF92FF9235
:100E0000CF93DF93FC01A185B2858C91C1E0D0E046
:100E1000DE01058402C0AA0FBB1F0A94E2F7068414
:100E200002C0CC0FDD1F0A94E2F79C2F9A2B9095FD
:100E3000892369017A0191E0C91AD108E108F10812
:100E4000232B242B252B09F483C0C62FD72F41E059
:100E500050E099912FEF290F2E3F18F19A01058448
:100E600002C0220F331F0A94E2F799231CF0209549
:100E7000822301C0822BA185B2858C9398E0A18545
:100E8000B2856C919A01068402C0220F331F0A9426
:100E9000E2F7262B2C93A185B2858C93915079F79C
:100EA00023C068E09A01058402C0220F331F0A9410
:100EB000E2F7722F7095872399230CF4822BA1857A
:100EC000B2858C93A185B2857C919A01068402C07B
:100ED000220F331F0A94E2F7272B2C93A185B285AA
:100EE0008C93990F6150F1F6A185B2852C91BA01CE
:100EF000058402C0660F771F0A94E2F7962F90953B
:100F000092239C93A185B2859C919A01068402C08C
:100F1000220F331F0A94E2F7292B2C93A185B28567
:100F20002C91BA01068402C0660F771F0A94E2F77B
:100F3000962F909592239C9391E0C91AD108E108CD
:100F4000F1089FEFC916D906E906F90609F081CF25
:100F500080E090E0DF91CF91FF90EF90DF90CF9015
:100F60000895FC01A185B2853C9181E090E0BC012F
:100F7000058402C0660F771F0A94E2F7AC0106846D
:100F800002C0440F551F0A94E2F7262F240F232B8B
:100F90002C93A385B4853C91BC01058402C0660FE7
:100FA000771F0A94E2F7AC01068402C0440F551F74
:100FB0000A94E2F7262F240F232B2C93A185B285C8
:100FC0003C91AC01058402C0440F551F0A94E2F71E
:100FD000242F209523232C93A185B2852C91068460
:100FE00002C0880F991F0A94E2F7809582238C93A0
:100FF0006085CF010E94670680E090E00895FC01C3
:10100000A185B2859C9121E030E0A901058402C050
:10101000440F551F0A94E2F7842F809589238C93FF
:10102000A185B2854C91C901068402C0880F991F21
:101030000A94E2F7842B8C93A185B2854C91C90167
:10104000058402C0880F991F0A94E2F7842B8C93C1
:10105000A385B4858C91A901058402C0440F551F56
:101060000A94E2F7068402C0220F331F0A94E2F7C3
:10107000242B28232C9380E090E00895A1E21A2EDF
:10108000AA1BBB1BFD010DC0AA1FBB1FEE1FFF1F2C
:10109000A217B307E407F50720F0A21BB30BE40B7C
:1010A000F50B661F771F881F991F1A9469F76095C3
:1010B0007095809590959B01AC01BD01CF0108957D
:1010C000EE0FFF1F0590F491E02D0994AEE0B0E023
:1010D000ECE6F8E00C94350B0D891E898F89988D0C
:1010E00026E02C831A83098397FF02C080E090E8F2
:1010F00001979E838D83AE01455E5F4F698D7A8D2A
:10110000CE0101960E9496084D815E8157FD0AC06E
:101110002F813885421753070CF49A01F801E20F2A
:10112000F31F10822E96E4E00C94510BABE0B0E07C
:10113000ECE9F8E00C94270B6C017B018A01FC01BF
:1011400017821682838181FFCCC1CE0101963C01BA
:10115000F6019381F70193FD859193FF81917F01C2
:10116000882309F4BAC1853239F493FD859193FF40
:1011700081917F01853229F4B60190E00E948D0AA9
:10118000E7CF912C212C312CFFE1F315D8F08B32D5
:1011900079F038F4803279F08332A1F4232D206184
:1011A0001DC08D3261F0803369F4232D216016C09B
:1011B000832D8260382EE32DE4603E2E2AC0F32D6D
:1011C000F8601DC037FC2DC020ED280F2A3040F0FC
:1011D0008E32B9F436FC81C1232D2064322E19C021
:1011E00036FE06C08AE0989E200D1124922E11C072
:1011F000EAE02E9E200D1124222EF32DF0623F2EC8
:1012000008C08C3621F4832D8068382E02C08836C1
:1012100041F4F70193FD859193FF81917F01811145
:10122000B3CF982F9F7D9554933028F40C5F1F4FB8
:101230009FE399830DC0833631F0833771F0833596
:1012400009F059C021C0F801808189830E5F1F4FCA
:1012500088248394912C530113C02801F2E04F0E8F
:10126000511CF801A080B18036FE03C0692D70E0EA
:1012700002C06FEF7FEFC5010E94820A4C0182011C
:10128000F32DFF773F2E16C0280122E0420E511C9D
:10129000F801A080B18036FE03C0692D70E002C065
:1012A0006FEF7FEFC5010E94770A4C01F32DF068C4
:1012B0003F2E820133FC1BC0822D90E088169906D8
:1012C000B0F4B60180E290E00E948D0A2A94F4CF37
:1012D000F50137FC859137FE81915F01B60190E001
:1012E0000E948D0A21102A9421E0821A910881140B
:1012F000910471F7E8C0843611F0893641F5F801A0
:1013000037FE07C060817181828193810C5F1F4F1E
:1013100008C060817181072E000C880B990B0E5F4D
:101320001F4FF32DFF763F2E97FF09C090958095B4
:10133000709561957F4F8F4F9F4FF0683F2E2AE049
:1013400030E0A3010E94C90A882E861845C085375F
:1013500031F4232D2F7EB22E2AE030E025C0932DCC
:10136000997FB92E8F36C1F018F4883579F0B5C061
:10137000803719F0883721F0B0C0E92FE061BE2E28
:10138000B4FE0DC0FB2DF460BF2E09C034FE0AC0B0
:10139000292F2660B22E06C028E030E005C020E1EB
:1013A00030E002C020E132E0F801B7FE07C0608102
:1013B0007181828193810C5F1F4F06C060817181B2
:1013C00080E090E00E5F1F4FA3010E94C90A882EA3
:1013D0008618FB2DFF773F2E36FE0DC0232D2E7F66
:1013E000A22E891458F434FE0BC032FC09C0832DA0
:1013F0008E7EA82E05C0B82CA32C03C0B82C01C02B
:10140000B92CA4FE0FC0FE01E80DF11D80818033D0
:1014100021F49A2D997EA92E09C0A2FE06C0B3948C
:10142000B39404C08A2D867809F0B394A3FC11C04C
:10143000A0FE06C0B21488F4280C922C9B180EC093
:10144000B21460F4B60180E290E00E948D0AB39479
:10145000F7CFB21418F42B1802C0982C212CA4FE3C
:1014600010C0B60180E390E00E948D0AA2FE17C072
:10147000A1FC03C088E790E002C088E590E0B601D7
:101480000CC08A2D867859F0A1FE02C08BE201C003
:1014900080E2A7FC8DE2B60190E00E948D0A8914DB
:1014A00038F4B60180E390E00E948D0A9A94F7CF59
:1014B0008A94F301E80DF11D8081B60190E00E944D
:1014C0008D0A8110F5CF222009F442CEB60180E2C8
:1014D00090E00E948D0A2A94F6CFF60186819781CA
:1014E00002C08FEF9FEF2B96E2E10C94430BFC01BF
:1014F0000590615070400110D8F7809590958E0F3F
:101500009F1F0895FC016150704001900110D8F7B1
:10151000809590958E0F9F1F08950F931F93CF93E3
:10152000DF93FB01238121FD03C08FEF9FEF2CC0D0
:1015300022FF16C046815781248135814217530707
:1015400044F4A081B1819D012F5F3F4F31832083FF
:101550008C93268137812F5F3F4F3783268314C0BA
:101560008B01EC01FB010084F185E02D0995892BAD
:10157000E1F6D80116968D919C91179701961796D2
:101580009C938E931697CE01DF91CF911F910F916F
:101590000895FA01AA27283051F1203181F1E89409
:1015A0006F936E7F6E5F7F4F8F4F9F4FAF4FB1E056
:1015B0003ED0B4E03CD0670F781F891F9A1FA11D51
:1015C000680F791F8A1F911DA11D6A0F711D811D52
:1015D000911DA11D20D009F468943F912AE0269F17
:1015E00011243019305D3193DEF6CF010895462F76
:1015F0004770405D4193B3E00FD0C9F7F6CF462F57
:101600004F70405D4A3318F0495D31FD40524193BF
:1016100002D0A9F7EACFB4E0A6959795879577957C
:101620006795BA95C9F700976105710508959B0103
:10163000AC010A2E06945795479537952795BA958C
:10164000C9F7620F731F841F951FA01D08952F9265
:101650003F924F925F926F927F928F929F92AF9242
:10166000BF92CF92DF92EF92FF920F931F93CF938F
:10167000DF93CDB7DEB7CA1BDB0B0FB6F894DEBF26
:101680000FBECDBF09942A88398848885F846E844C
:101690007D848C849B84AA84B984C884DF80EE8096
:1016A000FD800C811B81AA81B981CE0FD11D0FB69F
:1016B000F894DEBF0FBECDBFED010895F894FFCFC3
:1016C000001BB700801A06007A28002700040500D6
:1016D000000000000000000000000000000000000A
:1016E00000000000000000000000000000000000FA
:1016F00000000000000000000000000000000000EA
:1017000000000000000000000000000000000000D9
:1017100000000000000000000000000000000000C9
:1017200000000000000000000000000000000000B9
:1017300000000000000000000000000000000000A9
:101740000000000000000000000000000000000099
:101750000000000000000000000000000000000089
:101760000000000000000000000000000000000079
:101770000000000000000000000000000000000069
:101780000000000000000000000000000000000059
:101790000000000000000000000000000000000049
:1017A0000000000000000000000000000000000039
:1017B0000000000000000000000000000000000029
:1017C0000000000000000000000000000000000019
:1017D000000000000040000000000C52523C0000DD
:1017E000344A4A34000002621A0600003C4A4A3079
:1017F00000002E4A4A32000018147E1000002442D5
:101800004A3400004462524C000000047E00000094
:0E1810003C42423C00256C752E256C75000094
:00000001FF
