:1001000012C021C020C01FC01EC01DC01CC01BC00B
:100110001AC025C018C017C016C015C014C013C01F
:1001200012C011C010C011241FBECFE5D4E0DEBF45
:10013000CDBF22E0A0E6B0E001C01D92AF35B2070E
:10014000E1F738D17FC1DCCF81B381BB089583B79C
:10015000856083BF12BE89B7816089BF08951F92F1
:100160000F920FB60F9211248F939F93809160008E
:10017000882349F0809907C09091610081E0911136
:1001800080E080936100809903C01092600003C0FA
:1001900081E0809360009F918F910F900FBE0F9030
:1001A0001F901895C2986130710511F4C19A01C071
:1001B000C1988FB9779BFECFC29A089588EF91E0DE
:1001C000E7E6F0E0DF019C011D9221503040E1F7AD
:1001D000109266001092650087EF91E090936400A2
:1001E0008093630081E08093620008951F93CF9312
:1001F000DF93809165009091660097FF05C0109293
:1002000066001092650009C0883F914034F087EF86
:1002100091E09093660080936500809163009091D7
:10022000640097FF05C0109264001092630009C03B
:10023000883F914034F087EF91E090936400809381
:100240006300C0916500D0916600CE0164E570E066
:10025000D2D0162F60E070E08068A4DF60E070E02C
:10026000812F80649FDFC959DF4F20916300309157
:100270006400CE0187569040281739072CF061E0C2
:1002800070E089918FDFF1CF87EF91E09093660066
:1002900080936500109264001092630010926200D7
:1002A000DF91CF911F910895C49A87B38E6387BB66
:1002B000C498C49A80E58DB9C29A60E070E081E28A
:1002C00071DF60E070E088EC6DDF60E070E086E098
:1002D00069DF60E070E083E165DF60E070E080E2AC
:1002E00061DF60E070E08CE05DDF68DF7FCFCF939F
:1002F000C82F60E070E081E255DF60E070E08C2F95
:10030000806850DF60E070E080E2CF914BCF8435B1
:1003100008F04CC0603308F049C0262F269526957A
:10032000269590E034E5239F800D911D112438EF30
:10033000239F600D1124FC01E959FF4F20814115D5
:10034000510549F441E050E001C0440F6A95EAF7D5
:100350004095242313C04130510531F401C0440FAE
:100360006A95EAF7242B0AC04230510539F441E07E
:1003700050E001C0440F6A95EAF7242720832091BA
:100380006500309166008217930724F4909366000D
:10039000809365002091630030916400281739072D
:1003A0003CF4909364008093630002C081E0089560
:1003B00080E0089581E08093610080936000C4DE56
:1003C000C6DE72DFFBDE12DF78948091610001E00F
:1003D00010E0811102C000E010E0DAE0CAE0A801FC
:1003E0006C2F8D2F94DFCF5FCE30C9F7DF5FDE300B
:1003F000A9F7FCDEEACF97FB072E16F4009406D08F
:1004000077FD08D00BD007FC05D03EF49095819580
:100410009F4F0895709561957F4F0895AA1BBB1B50
:1004200051E107C0AA1FBB1FA617B70710F0A61BF4
:10043000B70B881F991F5A95A9F780959095BC0115
:08044000CD010895F894FFCFEF
:0400000300000100F8
:00000001FF
