:1000000012C021C020C01FC01EC01DC01CC01BC00C
:100010001AC08AC218C017C016C015C014C013C0B9
:1000200012C011C010C011241FBECFE5D4E0DEBF46
:10003000CDBF22E0A0E6B0E001C01D92AF35B2070F
:10004000E1F70DD2E0C2DCCFCF93DF93CDB7DEB7BF
:1000500088E390E028E330E0F90120812061FC0191
:10006000208387E390E027E330E0F90120812E63CD
:10007000FC01208336D188E390E028E330E0F901E9
:1000800020812F7EFC0120832CD188E390E028E39F
:1000900030E0F90120812061FC0120838DE290E0B5
:1000A00020E5FC01208388E390E028E330E0F901BB
:1000B00020812460FC01208360E070E081E2B4D004
:1000C00060E070E088ECB0D060E070E086E0ACD03A
:1000D00060E070E083E1A8D060E070E080E2A4D04E
:1000E00060E070E08CE0A0D005D020D00000DF916F
:1000F000CF910895CF93DF93CDB7DEB748EF51E0AE
:1001000060E070E080E690E077D2109259021092A1
:10011000580287EF91E090935B0280935A0281E04E
:1001200080935C020000DF91CF910895CF93DF931D
:1001300000D0CDB7DEB78091580290915902992333
:100140002CF410925902109258020DC0809158025E
:1001500090915902883F914034F087EF91E090935D
:1001600059028093580280915A0290915B02992320
:100170002CF410925B0210925A020DC080915A0228
:1001800090915B02883F914034F087EF91E090932B
:100190005B0280935A02809158029091590224E5A3
:1001A00030E0B90102D2806860E070E03DD080911B
:1001B00058029091590224E530E0B901F6D1CB0103
:1001C000806460E070E030D08091580290915902D4
:1001D0009A8389830EC089819A81805A9F4FFC013E
:1001E000808161E070E020D089819A8101969A83B4
:1001F000898380915A0290915B0229813A8182170A
:1002000093074CF787EF91E090935902809358023F
:1002100010925B0210925A0210925C0200000F9042
:100220000F90DF91CF910895CF93DF9300D01F926D
:10023000CDB7DEB789837B836A8388E390E028E3C8
:1002400030E0F90120812B7FFC0120838A819B8192
:10025000019751F488E390E028E330E0F901208130
:100260002260FC01208309C088E390E028E330E0AD
:10027000F90120812D7FFC0120838FE290E029810C
:10028000FC01208300008EE290E0FC018081882345
:10029000D4F788E390E028E330E0F901208124607E
:1002A000FC01208300000F900F900F90DF91CF9101
:1002B0000895CF93DF931F92CDB7DEB7898360E0B7
:1002C00070E081E2B1DF8981806860E070E0ACDFDE
:1002D00060E070E080E2A8DF00000F90DF91CF9136
:1002E0000895CF93DF9300D0CDB7DEB780E093E8D9
:1002F0009A83898305C089819A8101969A8389832B
:1003000089819A8181159D47B4F300000F900F9069
:10031000DF91CF910895CF93DF93CDB7DEB72897C4
:100320000FB6F894DEBF0FBECDBF8D836E835887A6
:100330004F838D81843518F48E81803310F081E0F5
:1003400085C08E81869586958695882F90E044E5B8
:10035000489F9001499F300D11248D81882F90E096
:10036000820F931F9B838A838E81869586958695BF
:10037000880F880F880F9E81292F281B822F8C833E
:100380008A819B81805A9F4FFC01808189838F8164
:100390009885892B81F48C81282F30E081E090E0D2
:1003A00002C0880F991F2A95E2F7982F90958981AE
:1003B0008923898325C08F819885019779F48C8161
:1003C000282F30E081E090E002C0880F991F2A9525
:1003D000E2F7982F8981892B898312C08F819885B4
:1003E000029771F48C81282F30E081E090E002C008
:1003F000880F991F2A95E2F7982F89818927898389
:100400008A819B81805A9F4F2981FC0120838091A2
:100410005802909159022A813B812817390734F4F8
:100420008A819B81909359028093580280915A024D
:1004300090915B022A813B818217930734F48A8171
:100440009B8190935B0280935A0280E028960FB6BE
:10045000F894DEBF0FBECDBFDF91CF910895CF934B
:10046000DF9300D000D0CDB7DEB781E080935D028E
:1004700081E080935E022AD039D0E6DD3BDE56DE95
:10048000789480915D02882329F081E090E09C833C
:100490008B8302C01C821B828AE0898312C08AE09F
:1004A0008A8309C08B819C81AC016A81898133DF99
:1004B0008A818F5F8A838A818E30A0F389818F5FE2
:1004C000898389818E3058F331DEDBCFCF93DF9380
:1004D000CDB7DEB781E390E021E330E0F901208180
:1004E000FC0120830000DF91CF910895CF93DF932B
:1004F000CDB7DEB783E590E023E530E0F901208158
:100500002560FC01208382E590E0FC01108289E5F2
:1005100090E029E530E0F90120812160FC01208391
:100520000000DF91CF9108951F920F9200905F001D
:100530000F9211248F939F93EF93FF93CF93DF93A9
:10054000CDB7DEB780915E02882391F080E390E022
:10055000FC018081882F90E081709927892B41F4DC
:1005600090915D0281E0992309F080E080935D0223
:1005700080E390E0FC018081882F90E081709927D2
:10058000892B19F410925E0203C081E080935E0211
:100590000000DF91CF91FF91EF919F918F910F908C
:1005A00000925F000F901F90189597FB072E16F48E
:1005B000009406D077FD08D00BD007FC05D03EF4A0
:1005C000909581959F4F0895709561957F4F0895FF
:1005D000AA1BBB1B51E107C0AA1FBB1FA617B70769
:1005E00010F0A61BB70B881F991F5A95A9F7809585
:1005F0009095BC01CD010895DC0101C06D9341507F
:0A0600005040E0F70895F894FFCF92
:00000001FF
