:1000000012C021C020C01FC01EC01DC01CC01BC00C
:100010001AC022C018C017C016C015C014C013C023
:1000200012C011C010C011241FBECFE5D4E0DEBF46
:10003000CDBF20E0A0E6B0E001C01D92A136B2071E
:10004000E1F722D026C0DCCF83B7876083BF12BE22
:1000500089B7816089BF08951F920F920FB60F92E2
:1000600011248F93809160008F3F19F410926000EB
:1000700005C0809160008F5F809360008F910F902A
:100080000FBE0F901F90189510926000DDDF7894DE
:06009000FFCFF894FFCF42
:00000001FF
