:1000000012C021C020C01FC01EC01DC01CC01BC00C
:10001000A0C019C018C017C016C015C014C013C0A6
:1000200012C011C010C011241FBECFE5D4E0DEBF46
:10003000CDBF20E0A0E6B0E001C01D92A236B2071D
:10004000E1F702D0DDC0DCCFCF93DF93CDB7DEB7D1
:1000500002D07894FFCFCF93DF931F92CDB7DEB756
:100060008FE490E02FE430E0F90120812068FC016A
:1000700020838FE490E02FE430E0F90120812F7B92
:10008000FC0120838FE490E02FE430E0F90120812F
:100090002062FC0120838FE490E02FE430E0F9013E
:1000A00020812F7EFC0120838EE490E02EE430E05E
:1000B000F90120812861FC0120838FE490E02FE486
:1000C00030E0F90120812360FC01208387E390E088
:1000D00027E330E0F90120812660FC0120838CE4D5
:1000E00090E0FC01118210828AE490E02FEF35E06D
:1000F000FC013183208388E490E020E034E0FC01BF
:100100003183208381E090E09093610080936000D0
:1001100089E590E029E530E0F90120812460FC01C7
:1001200020838EE490E0FC018081898389818B7F2C
:10013000898389818260898389818E7F89838EE426
:1001400090E02981FC01208300000F90DF91CF9186
:1001500008951F920F9200905F000F9211242F9329
:100160003F938F939F93EF93FF93CF93DF93CDB7FD
:10017000DEB780916000909161000197C9F488E436
:1001800090E028E430E0F90120813181205F3F4F89
:10019000FC013183208388E490E0FC01808191811F
:1001A0008F3F9540F0F0109261001092600019C0EE
:1001B00088E490E028E430E0F90120813181205189
:1001C0003109FC013183208388E490E0FC018081C7
:1001D0009181892B31F481E090E0909361008093CC
:1001E00060000000DF91CF91FF91EF919F918F917F
:1001F0003F912F910F9000925F000F901F901895E4
:04020000F894FFCFA0
:00000001FF
