:100000000C9434000C943E000C943E000C943E0082
:100010000C943E000C943E000C943E000C943E0068
:100020000C943E000C943E000C943E000C943E0058
:100030000C943E000C943E000C943E000C943E0048
:100040000C946D000C943E000C943E000C943E0009
:100050000C943E000C943E000C943E000C943E0028
:100060000C943E000C943E0011241FBECFEFD8E04C
:10007000DEBFCDBF0E9467000C947C000C94000092
:1000800084B5806484BD84B58F7784BD84B5806178
:1000900084BD84B58F7D84BD85B5877F85BD84B5DE
:1000A000826084BD84B58E7F84BDEEE6F0E0808101
:1000B0008160808385B5816085BD85B5826085BDA1
:1000C00085B58B7F85BD87EC87BD88BD0895559A22
:1000D000569A0E9440007894FFCF1F920F920FB65D
:1000E0000F9211248F9387EC87BD88BD8F910F905D
:0C00F0000FBE0F901F901895F894FFCFE2
:00000001FF
