:100000000C9434000C9446000C9446000C9446006A
:100010000C9446000C9446000C9446000C94460048
:100020000C9446000C9446000C9446000C94D100AD
:100030000C94E5000C948E000C9446000C94460041
:100040000C9446000C9446000C9446000C94460018
:100050000C9446000C9446000C9446000C94460008
:100060000C9446000C94460011241FBECFEFD8E03C
:10007000DEBFCDBF21E0A0E0B1E001C01D92A630FF
:10008000B207E1F70E94F9000C94FD000C94000007
:10009000E0E8F0E080818F77808380818F7B8083B0
:1000A00080818062808380818F7E8083A1E8B0E040
:1000B0008C9180618C938C91877F8C9380818260FE
:1000C0008083808181608083229A109285001092C3
:1000D000840080E094E0909389008093880080E819
:1000E00093E090938B0080938A0010920501109208
:1000F0000401EFE6F0E0808181608083808182608E
:1001000080838081846080838C918B7F8C938C91A1
:1001100082608C938C918E7F8C9308951F920F92A6
:100120000FB60F9211242F938F939F938091040108
:1001300090910501892BB1F080918A0090918B00FC
:1001400080589F4F90938B0080938A0080918A0003
:1001500090918B0081159440E1F41092050110926A
:10016000040117C080918A0090918B0080589109FA
:1001700090938B0080938A0080918A0090918B00ED
:100180008038910531F481E090E0909305018093EF
:1001900004019F918F912F910F900FBE0F901F9090
:1001A00018951F920F920FB60F9211248F939F9361
:1001B00081E090E090930301809302019F918F91E1
:1001C0000F900FBE0F901F9018951F920F920FB6B1
:1001D0000F9211248F939F9381E090E090930101FF
:1001E000809300019F918F910F900FBE0F901F90F1
:0E01F00018950E9448007894FFCFF894FFCF36
:00000001FF
