:1000000012C021C020C01FC01EC01DC01CC01BC00C
:100010001AC051C018C017C016C015C014C013C0F4
:1000200012C011C010C011241FBECFE5D4E0DEBF46
:10003000CDBF20E0A0E6B0E001C01D92A136B2071E
:10004000E1F702D059C0DCCFCF93DF93CDB7DEB755
:1000500002D07894FFCFCF93DF93CDB7DEB782E5A0
:1000600090E0FC01108289E590E029E530E0F9019B
:1000700020812160FC01208383E590E023E530E0CE
:10008000F90120812B7FFC01208383E590E023E5AB
:1000900030E0F90120812260FC01208383E590E0BB
:1000A00023E530E0F90120812E7FFC012083000050
:1000B000DF91CF9108951F920F9200905F000F92F1
:1000C00011248F93CF93DF93CDB7DEB7809160007B
:1000D0008F3F19F41092600005C0809160008F5F1F
:1000E000809360000000DF91CF918F910F9000927C
:0C00F0005F000F901F901895F894FFCF50
:00000001FF
