:1000000012C021C020C01FC01EC01DC01CC01BC00C
:10001000B1C019C018C017C016C015C014C013C095
:1000200012C011C010C011241FBECFE5D4E0DEBF46
:10003000CDBF20E0A0E6B0E001C01D92A236B2071D
:10004000E1F702D0BEC0DCCFCF93DF93CDB7DEB7F0
:1000500002D07894FFCFCF93DF93CDB7DEB78FE494
:1000600090E02FE430E0F90120812064FC0120833E
:100070008FE490E02FE430E0F90120812F77FC013C
:1000800020838FE490E02FE430E0F90120812061AB
:10009000FC0120838FE490E02FE430E0F90120811F
:1000A0002F7DFC0120838FE490E02FE430E0F90104
:1000B00020812E7FFC0120838FE490E02FE430E04C
:1000C000F90120812D7FFC0120838EE490E02EE455
:1000D00030E0F9012081277FFC0120838EE490E04D
:1000E0002EE430E0F90120812F7EFC01208387E39C
:1000F00090E027E330E0F90120812860FC012083B3
:1001000084E490E0FC0110828AE490E024EA36E086
:10011000FC013183208388E490E02CED35E0FC0184
:100120003183208389E590E029E530E0F9012081E1
:100130002C61FC0120838EE490E02EE430E0F90194
:1001400020812E7FFC0120838EE490E02EE430E0BD
:10015000F90120812260FC0120838EE490E02EE4EE
:1001600030E0F90120812B7FFC0120830000DF912A
:10017000CF9108951F920F9200905F000F9211246B
:100180002F938F939F93CF93DF93CDB7DEB780915B
:1001900060009091610021E0892B09F020E0822F1E
:1001A00090E090936100809360000000DF91CF9118
:1001B0009F918F912F910F9000925F000F901F9051
:0601C0001895F894FFCF32
:00000001FF
