:101E000001C0D8C01F92CDB7DEB711248FE594E092
:101E10009EBF8DBF84B7882361F0982F9A7092304F
:101E200041F081FF02C097EF94BF282E80E0AFD031
:101E3000E7C085E08EBD82E08BB988E18AB986E88B
:101E400080BD82E289B98EE0A2D0BD9A86E020E30F
:101E50003CEF44E050E23DBD2CBD48BF08B602FE59
:101E6000FDCF98B3952798BBA8955F9902C0815084
:101E700091F7EE24E39425E0D22E31E1C32E80D0F9
:101E8000813469F47DD0898386D089818238E9F0F4
:101E9000813811F488E001C083E06ED06AC08234DA
:101EA00011F484E103C0853419F485E07CD061C06D
:101EB000853539F465D0882E63D0982E880C991C0E
:101EC00057C0863521F484E06ED080E0E6CF8436BA
:101ED00009F031C055D054D0182F52D0F82E012F10
:101EE00080E6A82EB12C4CD0F50181935F01015002
:101EF000D1F751D0F5E4FF1201C0FFCF83E0F40128
:101F000087BFE89507B600FCFDCFA0E6B0E0F4017E
:101F10008D919D910C01E7BEE895112412503296E7
:101F20001111F6CFF401D7BEE89507B600FCFDCF3E
:101F3000C7BEE8951EC0843771F422D021D0F82E98
:101F40001FD029D08401F80185918F0115D0FA9412
:101F5000F110F9CF0EC0853739F41DD08EE10CD0C9
:101F600083E90AD087E099CF813511F488E00FD05A
:101F700012D080E101D083CF5D9BFECF8CB9089554
:101F80005F9BFECF5C9901C0A8958CB1089598E144
:101F900091BD81BD0895F4DF803219F088E0F7DF4C
:101FA000FFCF84E1E9CFCF93C82FEADFC150E9F733
:101FB000CF91F1CFFC010A0167BFE895112407B664
:101FC00000FCFDCF667029F0452B19F481E187BF35
:041FD000E8950895F3
:021FFE000008D9
:0400000300001E00DB
:00000001FF
